:10600000C00A0020D96C0000D56C0000D56C0000DF
:10601000A98D0000D56C0000D56C0000D56C000087
:10602000D56C0000D56C0000D56C0000D56C00006C
:10603000D56C000010F30200356B0000D56C000039
:10604000D56C0000D56C0000D56C0000D56C00004C
:10605000D56C0000D56C0000D56C0000D56C00003C
:10606000D56C0000D56C0000D56C0000D56C00002C
:10607000D59C0000D56C0000D56C0000D56C0000EC
:10608000D56C0000D56C0000D56C0000D56C00000C
:10609000D56C0000D56C0000D56C0000D56C0000FC
:1060A000D56C0000D56C0000D56C0000D56C0000EC
:1060B000D56C00001DD80200D56C0000DDE10200A7
:1060C00095E1020091E10200E9D90200D9E1020064
:1060D00099E10200B1E102009DE102003DE202000F
:1060E000F1BC0200B9BE02001DE20200D56C000046
:1060F0002D8C0000D56C0000D56C0000D56C000024
:10610000D56C0000D56C0000D56C0000D56C00008B
:10611000D56C0000D56C0000D56C0000D56C00007B
:10612000D56C0000D56C0000D56C0000D56C00006B
:10613000D56C0000D56C0000D56C0000D56C00005B
:1061400010B5054C237833B9044B13B1044800E073
:1061500000BF0123237010BDD40E002000000000FA
:10616000843C030008B5034B1BB10349034800E01E
:1061700000BF08BD00000000D80E0020843C0300D2
:10618000A3F5803A704700BF174B002B08BF134B95
:106190009D46FFF7F5FF00218B460F461348144A32
:1061A000121A28F022FE0E4B002B00D098470D4B00
:1061B000002B00D098470020002104000D000D485E
:1061C000002802D00C4800E000BF28F0A3FD20000A
:1061D000290000F019FC28F089FD00BF000008002C
:1061E0000000000000000000C00A0020D40E0020C3
:1061F000102C002000000000000000000369C268AD
:1062000093429CBF80681B18013B981A70472DE988
:10621000F843D0E902940546A9EB0408406890458C
:1062200020440F46144406D928F0B8FDBFF35F8F11
:10623000EC60BDE8F8834246A4EB090428F0AEFD0B
:106240002246686807EB0801EEE72DE9F8430646A9
:10625000894617464FF00008C5683469B368A542FF
:1062600028BFE418013C621B5C1BBC4228BF3C46B3
:10627000944228BF1446706849462246284428F0B4
:106280008DFDB3682544AB4208BF0025A044A1445E
:106290003F1BBFF35F8FF560002FDED14046BDE8A6
:1062A000F883000010B5144CA8220021204628F0E5
:1062B0009CFD0323114A23616361114BA261E361D9
:1062C0004FF4806323620023A3626362E362226669
:1062D0000C4A62661022A2662367E3666367BFF317
:1062E0005F8F094A12F80119E1540133102BF9D1DB
:1062F000BFF35F8F10BD00BFF00E002098F00200CA
:10630000A80F0020980F0020B0F0020070B51824EC
:1063100000FB0445144B16461D4404FB0033DC6AA5
:10632000012C0ED0022C18D0E4B92846FFF766FFE6
:10633000864204D832462846FFF769FF3446204695
:1063400070BD2846FFF75AFF8642344628BF0446F0
:1063500028462246FFF75BFFF1E72846BDE870407C
:10636000FFF773BF0024EAE7F00E002037B50B4BB0
:106370000C461B782BB9CDE90002FFF793FFDDE94E
:106380000002EFF311854FF0200181F311882146BF
:10639000FFF7BCFF85F3118803B030BDF00E00207D
:1063A000826810B504464068531C834205D82068B3
:1063B0008154A360E3680133E360D4E901329A4277
:1063C0000BD121682069FFF7D1FFA368984215BF60
:1063D0004FF0FF330023E360A36010BD2DE9F84FB9
:1063E0001646054688460A464FF0010A9946DDE9F9
:1063F0000A43B24212D2CA4538BFCA4613F0010B53
:1064000001D184B90024EB68002B46DB0127B9F1E8
:10641000010F1ED909F1FF397743F8E7B2FBF6F215
:106420000AF1010AE5E79B0711D5B9F1000F0CBF8E
:1064300030272027A245E6D239462846FFF7B0FF8D
:10644000EB68013C002BDEDB002CF3D1DAE72027E0
:10645000F0E7B8FBF7F39E42DED9DFF84890B8FBCF
:10646000F7F3284619F8031007FB1388FFF798FF86
:10647000EB68002B03DBB742B7FBF6F30FD2BBF19F
:10648000000F0AD04CB1A24507D220212846FFF7C1
:1064900087FFEB68013C002BF4DABDE8F88F1F465C
:1064A000DDE700BFB2F002002DE9F04F9BB00AAB70
:1064B0000E4605934021002315464FF00A0ACDE908
:1064C0000613CDE90830039016F8011B39B9089B73
:1064D000002B00F3098108981BB0BDE8F08F252937
:1064E00040F0B5804FF0000B07E0302B0FD14BF0A0
:1064F000020B01E04BF0010B0E46314611F8013B57
:106500002D2BF7D0F1D8232B11D02B2B0CD000241E
:10651000314611F8013BA3F1300009280AD80AFBE3
:1065200004340E46303CF3E74BF0040BE4E74BF049
:10653000080BE1E72E2B0FD10E464FF00009304635
:1065400010F8011BA1F13007092F07D80AFB091326
:106550000646A3F13009F2E74FF00009304610F883
:10656000011B01F0FB07682F0646F8D0782909D8EF
:106570006F290BD8632966D020D8252967D05829E0
:1065800000F09280089B002B9EDAA0E77039082962
:10659000F8D801A353F821F0D96600008565000002
:1065A00085650000B96600008565000097660000FB
:1065B0008565000085650000A96600006429E1D1B9
:1065C0004FF0010829680F68081D87EAE771286005
:1065D000A1EBE77109293EDCC84538BFC8462CB19C
:1065E000002F02DB1BF0040F00D0013C1BF0020F58
:1065F00002D0B9F1000F04D01BF0010F01D17CBB18
:10660000002408990029BDDB002F34DA2D217F42B8
:1066100005A8FFF7C5FE08990029B3DB0BF00301BD
:10662000022904D1B9F1000F01D14CBB0024089913
:106630000029A7DB4B460A223946CDE9004B05A8C5
:10664000FFF7CCFE9EE72B681A1D19782A6005A873
:10665000FFF7A6FE96E7B1FBFAF108F10108B9E7EA
:10666000A045CED2202105A8FFF79AFE0899013C4B
:106670000029C4DAC5E71BF0040FCCD02B21C7E7F3
:10668000A045D4D2302105A8FFF78AFE0899013C25
:106690000029CADACBE74B460A222968CDE9004B2C
:1066A000081D28600968CAE74B462968CDE9004BF8
:1066B000081D28601022F5E72B681A1D2A601C6847
:1066C00014F8011B00293FF45DAF05A8FFF768FE31
:1066D000089B002BF4DA55E7296800220B1D2B607C
:1066E0000823CDE90032E5E7079A1AB103980AA911
:1066F000FFF73CFEDDE9072313440893EBE600BFF8
:106700000EB403B503AB53F8041B01AA0193FFF7C2
:10671000CBFE02B05DF804EB03B070470000000050
:1067200070B52DED028B064682B010EE100A0D46B4
:1067300028F0C4F841EC100B684628F013FCB0EECA
:10674000408AF0EE608A9DED000B28F075FC51EC5C
:10675000100B28F00BF9642490FBF4F303FB1403F3
:10676000B0EE480AF0EE680A336028F065FC0022BB
:1067700051EC100B0C4B27F013FE09A3D3E90023B7
:1067800027F03EFF28F0F2F890FBF4F303FB14002F
:10679000286002B0BDEC028B70BD00BFAFF300807B
:1067A0002D431CEBE2361A3F0000594010B5054856
:1067B00000F0F6F8BDE8104000231A4619461846C6
:1067C00001F03EBC180B00202DE9F041174B1B785F
:1067D0004BB3DFF87480164C4146164E164F2046D8
:1067E00000F028F9154D94ED000A154C3146384655
:1067F000FFF796FF2146284698ED000AFFF790FF25
:10680000104A3B68042113703368152053702B68BD
:1068100093702368D3701BF019F9BDE8F0414FF471
:10682000FA7000F0FDB8BDE8F08100BFAC130020A5
:10683000C4130020C0130020B8130020B41300209C
:10684000BC130020A8130020B013002070B503680B
:10685000374A23F47F4323F0070393428CB03FD0A1
:1068600002F1807293424DD0324A93425DD10021B1
:106870006FF01D000DF10E0303AA1BF0FDF800B12F
:10688000FEE72D4A04AC02F118062546106851684F
:10689000083203C5B2422C46F7D11068274C9288C3
:1068A0002860AA8020461BF06BF804AB014600B1BB
:1068B000FEE71E2220781BF09DF8034600B1FEE79C
:1068C0004FF448620090114620781BF071F800B137
:1068D000FEE70222207811461BF0A2F828B3FEE75B
:1068E000002101230846042201F0AAFB642000F0E5
:1068F00097F80122124B13481A700CB0BDE8704093
:1069000000F084BA00230E4A1946184613701A463E
:1069100001F096FB0B4800F043F80222074B1146AA
:1069200018781BF07DF800B1FEE70CB070BD00BF19
:10693000A0000600A0000100C2F00200C00A002072
:10694000AC130020180B00207FB50023CDE90333E2
:1069500005930123ADF804000291054801A9ADF8A3
:106960000630ADF80C2000F0C9FA07B05DF804FB62
:106970000000014A7FB50023CDE9033305930223CC
:10698000ADF804000291054801A9ADF80630ADF854
:106990000C2000F0B3FA07B05DF804FB0000014AD8
:1069A0001FB504460021006801F0C8FB4FF4807356
:1069B000ADF80030E36869460293A368206801934C
:1069C000237C8DF80C3001F0C3FB002361791A465B
:1069D000207901F035FB0023E1791A46A07901F016
:1069E0002FFB2368064A934204D0064A934205D1FE
:1069F0002F2000E02E20002100F0BEFC04B010BDCE
:106A00000000014A0080064008B503F080F9FFF756
:106A1000CDFE03F089F9FFF7D7FE02F047FBF8E758
:106A200010B5044602F0A0FEA0B2BDE8104002F08E
:106A3000ADBF0000FD232DE9F04385B001220646DD
:106A40000D4688200DF107018DF80730FFF77CFF18
:106A50000A20FFF7E5FF0622882002A9FFF78AFF38
:106A60004FF000080446DFF89C9002AF4946002032
:106A700017F8012B08F10108FFF742FEB8F1060FE5
:106A8000F4D11B490020FFF73BFE9DF80B209DF839
:106A90000C309DF8081003EB02239DF809209FEDB0
:106AA000157A02EB012292B207EE902AF8EE677A8D
:106AB000DFED116A87EE876ADFED107A56EE267AEF
:106AC0009BB2C6ED007A07EE903AF8EE677AC7EE11
:106AD000876A9FED0B7AF1EE087A201E56EE877AD0
:106AE00018BF0120C5ED007A05B0BDE8F08300BFF6
:106AF000E6F0020000FF7F4700002F430000344211
:106B00000000FA42E0F0020008B507F049FA08F088
:106B10001CFF0EF071FB0BF0B4F8BDE808400FF05D
:106B2000EBB808B512F066FE1AF0A3F8BDE808400D
:106B300013F09ABA07F0BCB808B50548FFF7F1FFA3
:106B4000034806F063FEBDE80840024806F08EBE2A
:106B5000E0F20200C0F202000120704700B5C3B0AD
:106B600006F0BEFF06F0E7FF48B1FFF7F5FF30B1D2
:106B700001A81AF0FEFE10B901A8FFF767FE43B0A6
:106B80005DF804FB08B50321802000F017FF032106
:106B90004FF4806000F012FF03214FF4906000F08A
:106BA0000DFF09214FF4C06000F008FF09214FF4E8
:106BB000F06000F003FF09213E2000F0FFFE0921F4
:106BC0002D2000F0FBFE002008BD000008B5144B8E
:106BD0001B68C3F30743012B0ED1124B04205A6EDE
:106BE0004FF480231049520358BF104A4B6601F5F9
:106BF0001041086258BF536601F022FE01F0BAFD51
:106C000001F03CFE01F0D8FD01F014FEFFF7BAFFE1
:106C100001F0C0FD00F082F9BDE8084002F056B96D
:106C20000080E00F008000400090004000A0004085
:106C300000F018B808B502F097FD01F021FE05F04C
:106C400002FCBDE8084002F005B808B501F086FD79
:106C5000BDE80840FFF770BF704770477047FFF707
:106C60007DBF704708B53A20012100F085FBBDE8E3
:106C70000840014800F0CAB8180B002001207047F6
:106C80000120704710B506F097FF0446FFF7F6FFA6
:106C9000002814BF2046002010BD38B502F008FBC4
:106CA000044606F097FF042810D002284FF0000594
:106CB00008BF0124FFF7E4FF042809D0022808BF19
:106CC0000124002D18BF0024204638BD0125F1E71E
:106CD0000024F9E7FEE7000008B500F013F8064BC2
:106CE000064A07498B4201D3FFF74EFA52F8040BCC
:106CF00043F8040BF6E700BFC00A00208C3C0300F9
:106D0000D40E0020044B054A9A60D3F8882042F440
:106D10007002C3F88820704700ED00E000600000BA
:106D2000014B1868704700BF300B0020084B1B6FE9
:106D300003F00703022B04D0032B05D0012B05D051
:106D4000FEE7044B18687047034BFBE703487047A6
:106D500000800040300B0020340B0020002D31015A
:106D600008B5FFF7E3FF054B1B6FC3F30333013394
:106D7000B0FBF3F0024B186008BD00BF008000407C
:106D80002C0B00200048704700B4C404014B186865
:106D9000704700BF340B0020054B1860054B1B6F7C
:106DA00003F00703032B01D1FFF7DABF704700BFE1
:106DB000340B0020008000400020704700487047DE
:106DC000002D31014FF4004070474FF47A70704746
:106DD000014B1868704700BF380B00200023036088
:106DE000704703680B6001607047000005490A683E
:106DF0001318054883428CBF4FF0FF320B601046DA
:106E0000704700BF3C0B0020008000202DE9FF41AF
:106E10000368374A0446934204D0364A934251D11C
:106E20002F2000E02E20012100F0A6FA01230A22E3
:106E30006179207901F004F901230A22E179A0792E
:106E400001F0FEF8092601272B4D4FF0300842F2E1
:106E500010032279617908FB025207FA01F1D1503F
:106E6000642002F06DFF41F210012379627908FB82
:106E7000035307FA02F264205A5002F061FF013E08
:106E8000E3D120681A4B98421FD10323C5F89034F0
:106E90006279237943EA0243C5F89434E279A3790D
:106EA00043EA0243C5F8983440F20113ADF80030CC
:106EB000E36869460293A3680193237C8DF80C3044
:106EC00001F046F904B0BDE8F0810A4B9842EBD1DD
:106ED0000323C5F8A0346279237943EA0243C5F855
:106EE000A434E279A37943EA0243C5F8A834DBE786
:106EF0000000014A0080064000C0034038B5054646
:106F000001F064FA044C012801D1013C00D138BDE4
:106F1000284601F03FF9F6E7E1930400024B1968B7
:106F2000024B18681FF0C4BD440B0020400B00202A
:106F30007047000037B5920004460D46019228F0D4
:106F4000A3F8431C0BD060B929462046019A27F0CC
:106F500015FF0028044808BF002003B030BD0348D7
:106F6000FBE70348F9E700BF10E000F021E000F084
:106F700024E000F013B5044601A801F0FFFA9DF8E3
:106F80000630012223804FF4807300206380054B7C
:106F90009B680A3303F01F0302FA03F3636002B035
:106FA00010BD00BF0080E00F01F064BA08B501F029
:106FB00051FA002008BD10B5044644EA010313F05D
:106FC0000303084609D1934201D1002010BD54F8B3
:106FD000231040F823100133F5E72146920027F0F3
:106FE000DDFEF2E710B5044628F046F8431C15D044
:106FF000B0B90C4B20469B680A3303F01F020123F3
:10700000934023F003032344984201D1002010BD94
:1070100050F8042B0132F7D00348F8E70348F6E7AD
:107020000348F4E70080E00F0EE000F021E000F0FC
:1070300024E000F008B500F057FE014B186008BDD1
:10704000581A0020014B186800F052BE581A002050
:107050000A460139014401F057BE4FF04023D3F8EE
:107060008420D206FBD4D3F88400C0F3811070478B
:1070700038B5104B0546D3F820310C4603F0030316
:10708000022B0BD0032B0DD0012B0FD1FFF748FEA5
:10709000052305B1286004B1237038BDFFF776FEE3
:1070A0000323F6E7FFF78AFE0223F2E700231846E0
:1070B000EFE700BF0080004073B50D4600210E4B86
:1070C0000191D3F88041064604F00304012C09D055
:1070D000022C0CD00C460EB1019B336005B12C7014
:1070E00002B070BD01A8FFF7C3FF0F24F3E7FFF75D
:1070F00065FE0190EFE700BF0080004038B5174BF8
:107100000546D3F824310C4603F00703013B052B59
:1071100020D8DFE803F0030F171B0B13FFF700FE67
:10712000052305B1286004B1237038BDFFF7F8FDD1
:107130000623F6E7FFF72AFE0323F2E7FFF726FE12
:107140000423EEE7FFF73AFE0223EAE7FFF734FEF7
:107150000723E6E700231846E3E700BF008000406E
:1071600038B5104B0546D3F840310C4603F0030305
:10717000022B0BD0032B0DD0012B0FD1FFF722FEDA
:10718000092305B1286004B1237038BDFFF720FE44
:107190000823F6E7FFF719FE0B23F2E70023184652
:1071A000EFE700BF0080004038B5134B0546D3F829
:1071B00000320C4603F00703013B032B18D8DFE82D
:1071C00003F0020A0E12FFF7FDFD092305B1286046
:1071D00004B1237038BDFFF7FBFD0823F6E7FFF786
:1071E000F4FD0B23F2E7FFF7BBFD0E23800AEDE76A
:1071F00000231846EAE700BF0080004038B5104B76
:107200000546D3F840320C4603F00303022B0BD0A3
:10721000032B0DD0012B0FD1FFF7D4FD092305B1AE
:10722000286004B1237038BDFFF7D2FD0823F6E7CC
:10723000FFF7CBFD0B23F2E700231846EFE700BF73
:107240000080004038B5104B0546D3F860310C463D
:1072500003F00303022B0BD0032B0DD0012B0FD116
:10726000FFF7B0FD092305B1286004B1237038BDD4
:10727000FFF7AEFD0823F6E7FFF7A7FD0B23F2E7C4
:1072800000231846EFE700BF0080004010B40D4C0B
:107290000B46D4F8204204F00304012C0AD0022C3F
:1072A0000CD008B1002101600BB100221A705DF80A
:1072B000044B70475DF8044BFFF7DABE5DF8044BF2
:1072C000FFF74EBF00800040B0F5207F1FD009D8E7
:1072D000B0F5007F15D003D868B1B0F5C07F0AD0F3
:1072E00000200CE0B0F5607FFAD10B4BD3F88000A2
:1072F000C0F3011003E0084B186FC0F303300130F6
:107300007047054BD3F89000C0F30460F7E7024BD9
:10731000186FC0F38020F2E7008000404FF4003285
:1073200038B50E4B05469A660020FFF7CDFF41F6B3
:1073300071320B4B6843DC690A4DDA639A68A842E4
:1073400004F4803422F4401203D9012918BF42F416
:1073500080129A600CB10022DA6338BD00900040C0
:1073600000000340005A620208B5FFF70BFDBDE8BC
:1073700008400021FFF7D2BF420910B510D0012A02
:1073800010D00B4B0B4C022A18BF234600F01F00F5
:1073900051B103F58053012202FA00F0186010BDCC
:1073A0001346F3E7044BF1E703F50053F3E700BF9F
:1073B0006880004060820040648000401FB5002368
:1073C00080280446029372D02BD8002873D0A0F1F5
:1073D0002004A3B2412B32D8412C30D8DFE804F08E
:1073E0006B6E6B6E7D7D7D7D6E6E873C9E623C6EAE
:1073F0006E6E2F2F2F2F2F2F82546E6E6EA8A36EBE
:107400002F2F2F2F2F2F2F2F2F2F2F2F2F6B2F6B14
:107410006B6B7D2F2F2F2F2F2F2F2F2F2F2F2F2FB6
:107420006B6BB0F5806F58D021D8B0F5007F4FD08E
:1074300008D8B0F5807F5FD0B0F5C07F3BD0029810
:1074400004B010BDB0F5607F42D0F8D8B0F5207F11
:1074500034D0B0F5407FF2D1FFF782FC02464FF402
:107460002070FFF731FFB2FBF0F0400821E0B0F5EB
:10747000C06F53D00DD8B0F5A06F33D0B0F5B06F5A
:1074800035D0B0F5906FDAD1002102A8FFF736FEB3
:10749000D5E7B0F5E06F46D0B0F5F06F48D0B0F565
:1074A000D06FCCD1002102A8FFF77EFEC7E7FFF71F
:1074B0003DFC0290C3E7FFF753FCFAE7FFF750FCEF
:1074C00002464FF42070FFF7FFFEB2FBF0F0F0E74A
:1074D000FFF72CFC02462046F5E7002102A8FFF743
:1074E000C7FDACE7002102A8FFF7D0FEA7E7002107
:1074F00002A8FFF7E1FDA2E703934FF0E0231B6929
:107500005B0705D5FFF72CFC0390039B029396E7DE
:107510000DF1070103A8FFF723FEF6E7002102A8FB
:10752000FFF71EFE8BE7002102A8FFF767FE86E744
:10753000002102A8FFF786FE81E7000008B5802041
:10754000FFF73CFF034B98429EBF4FF48032024B43
:107550001A6708BD005A620200A00040002307B568
:10756000B0F5807F8DF802307FD02AD8382800F01F
:10757000A0800CD8243883B2092B10D809280ED843
:10758000DFE800F06D6D6D6D0D0D670D39875228C8
:1075900065D009D83D283ED03E2800F090809DF867
:1075A000020003B05DF804FB8028F8D1474B1B6F45
:1075B00003F00703013B032BF1D8DFE803F0484455
:1075C0004276B0F5D06F64D01BD8B0F5A06F70D004
:1075D0000BD8B0F5806F42D0B0F5906FDFD10020AE
:1075E0000DF10201FFF78AFDD9E7B0F5B06F30D099
:1075F000B0F5C06FD3D100200DF10201FFF7B0FD4F
:10760000CDE7B0F5006FEAD00BD8B0F5E06F56D0FB
:10761000B0F5F06FC3D100200DF10201FFF712FEAB
:10762000BDE7B0F5086FBAD1284BD3F8003103F0AD
:107630000303022B33D0032B35D0012B37D1FFF7B7
:10764000A5FB032300E005238DF80230A7E7022302
:10765000FAE700200DF10201FFF72EFD9FE7002061
:107660000DF10201FFF704FD99E701934FF0E023CC
:107670001B695B0707D5FFF773FB0C238DF80330FD
:107680009DF80330E0E70DF1030101A8FFF768FD65
:10769000F6E700200DF10201FFF786FD7FE7FFF717
:1076A00097FB0823D0E7FFF787FB0723CCE70123ED
:1076B000CAE700200DF10201FFF7E8FD6FE70020A7
:1076C0000DF10201FFF79AFD69E700BF008000405D
:1076D00008B5FFF743FF082812D00938C0B20128C7
:1076E00011D84FF40012094B4FF6FF705A6603F59C
:1076F000D8335B6A13F0010F18BF4FF4FA7008BD5E
:10770000034B1888FBE74FF6FF70F8E70090004046
:10771000640B002070B504468020FFF71FFF03288C
:107720007CD04FF40022424B42495A6645F60E0384
:107730000222C1F88030404B9A62012203F5805347
:107740009A628A6D12F48032FBD1637820781B052F
:1077500043EA0063A079257C0343E078667C43EA32
:107760000043207943EA0033607943EA80130B61D8
:107770008B69E07A03F000430343E07943EA8063D6
:10778000207A43EA0063607A43EA0043A07A43EA3E
:1077900000238B61637B096A002B18BF0822207BC2
:1077A00021F00D0143EA010343EA800342EA0302A8
:1077B000204B1A62A27B4FEA421230D1986AE17BD9
:1077C00020F0330042EA0112024342F001029A62C1
:1077D0001A4A996D32EA0101FBD1022216498A62E6
:1077E0001A659A6D5200FCD41869A27820F47000D2
:1077F00040EA02504FF0004218610F4B9A611DB9E8
:10780000022203F580539A6216B901220C4B9A6248
:10781000A37C1BB1074B0B4AC3F8802070BD996A4B
:1078200021F0330131430A4342EA4502EFE700BF4A
:107830000090004000C0004000D000400300014024
:1078400000E00040F1A7FFFF014B93F900007047F3
:107850000C1B00204FF4001208B5184B5A66022387
:10786000174A5360936813F48033FBD1012822D167
:10787000FFF78CFA134B984215D003F5122303F54A
:10788000F863984213D0104B00EB8002400AB3FB20
:10789000F0F0520A0A4BDA62012218635A6200229F
:1078A000074B5A6008BD45F67A10084AF2E745F6DC
:1078B0001A00074AEEE75362F1E700BF009000406C
:1078C0000040024000F0490264666666D8B80500D0
:1078D000BBCF05000029CCBF01210021FFF71EBD51
:1078E000B0F5207F10B50C4642D008D8B0F5007F27
:1078F00033D003D888B1B0F5C07F0ED010BDB0F53D
:10790000607FFBD11F4B013CD3F8801021F0300188
:1079100041EA0414C3F88040F0E7FFF725FD00F0CA
:1079200035F84FF48031184A164B1167196F013C36
:1079300021F4704141EA04341C67FFF711FA044650
:10794000FFF78BFBC0F102012046FFF7C3FF00F0F9
:1079500023F8BDE81040FFF7F1BD0A4B013CD3F816
:10796000901021F0F85141EA0464C3F89040C5E753
:10797000044B013C196F21F4806141EA84241C67A7
:10798000BCE700BF008000400090004002214FF49F
:107990002070FFF7A5BF000008B54FF4C070FFF7D7
:1079A0000DFDBDE80840044988428CBF0221012139
:1079B0004FF42070FFF794BF80F0FA02B0F5807F9B
:1079C00070B50C4600F0FE802AD8382800F05281AD
:1079D00011D8243883B2092B16D8092814D8DFE827
:1079E00010F0E000E000E000E00013001300D10020
:1079F000130048003801522800F0D38005D83D28F4
:107A000053D03E2800F0478170BD8028FCD18B1EEA
:107A1000052B00F2B480DFE803F0AF9DB26DB2AC8D
:107A2000B0F5D06F00F0158134D8B0F5A06F00F03C
:107A3000218117D8B0F5806F00F0B380B0F5906F5A
:107A4000E2D1023CE4B2052C8CBF00219A4B9B4A48
:107A500098BF195DD2F8243123F007030B43C2F815
:107A60002431D1E7B0F5B06F00F08C80B0F5C06F75
:107A7000CAD1083CE4B2032C8CBF0021904B8F4A42
:107A800098BF195DD2F8403123F003030B43C2F8CD
:107A90004031B9E7B0F5006FD3D017D8B0F5E06F3B
:107AA00000F0F980B0F5F06FAED1083CE4B2032CE1
:107AB0008CBF0021834B814A98BF195DD2F8603199
:107AC00023F003030B43C2F860319DE7B0F5086F64
:107AD0009AD1CC1EE4B2052C8CBF00217A4B774A98
:107AE00098BF195DD2F8003123F003030B43C2F8AD
:107AF000003189E7002502260121022000F0B8F9B3
:107B0000FFF732FCFFF742FF4FF480316F4B6B4AB7
:107B10001967136F23F0070333431367FFF720F947
:107B20000646FFF79AFAC0F102013046FFF7D2FE8F
:107B30000121002000F0DCF9FFF72EFFFFF7FEFC2B
:107B4000002D7FF461AF032C7FF45EAF0122604B08
:107B50009A6259E74FF400225C4B03265A660122D1
:107B600003F540539D6A03F58053C5F340059A62BF
:107B7000C2E700250426BFE700250126BCE7002553
:107B80002E46B9E7022C03D0A4F10F004442444131
:107B90004A4AD2F8803123F003031C43C2F88041E3
:107BA00032E7023CE4B2032C8CBF0021494B434A2C
:107BB00098BF195DD2F8203123F003030B43C2F8BC
:107BC000203121E7A1F10804082C3FF61DAF01A3E5
:107BD00053F824F0F97B0000F97B0000097A0000DB
:107BE000F97B0000277C0000097A0000097A000078
:107BF000097A0000F97B00004FF480322F4B3649A0
:107C0000586E03F580535A660B6A43F001030B620A
:107C1000C1035CBF314B5A664FF0E022136923F079
:107C200004031361F0E64FF48032244B2A49586E66
:107C300003F580535A660B6A23F001030B62C303FA
:107C40005CBF264B5A664FF0E022136943F00403F1
:107C5000E7E7083CE4B2062C8CBF0021204B174A12
:107C600098BF195DD2F8003223F007030B43C2F826
:107C70000032C9E60F2C0CD0102C14BF00210221B9
:107C80000E4AD2F8203223F003030B43C2F820320D
:107C9000BAE60121F4E7083CE4B2032C8CBF0021D2
:107CA000104B064A98BF195DD2F8403223F0030307
:107CB0000B43C2F84032A7E67CF30200008000408C
:107CC00078F3020078F3020089F30200009000408C
:107CD00000E0004074F3020000C0074000A0004034
:107CE00082F3020078F30200EFF3108072B670475F
:107CF00000B962B67047EFF31180302383F3118827
:107D0000704780F311887047194B10B51B6873B327
:107D1000184A5268012A2AD0174A8020C2F8003136
:107D2000FFF71CFC05281FD14FF4C070FFF7CCFAF9
:107D30000128044604D102214FF4C070FFF7D0FDA2
:107D400007220E4B1A610122A3F580535A60094A9B
:107D50001369DB07FCD5012C09D12146BDE8104091
:107D60004FF4C070FFF7BCBD0122054B5A6010BD37
:107D7000101B002000C001400080004000E00140D6
:107D800000D0014000224FF40031074B1A60074A2F
:107D9000516602F598325268012A02BF044AD2F8AD
:107DA00000211A60704700BF101B002000900040A7
:107DB000008000404FF04022536F417823F440731D
:107DC00043EA0123536770477047704710B5044674
:107DD00008B1FFF7D7FF0E4A136943F0040313619C
:107DE00001F03CFBFFF7F0FFFFF77EFF27F03CF9C7
:107DF000FFF77EFFFFF7E9FF01F044FB1CB1BDE890
:107E00001040FFF781BFBDE81040FEF7A9BF00BFDB
:107E100000ED00E010B5044608B1FFF7B3FF0C4ACF
:107E2000136943F00403136101F018FBFFF75CFFD3
:107E300027F01AF9FFF75CFF01F024FB1CB1BDE845
:107E40001040FFF761BFBDE81040FEF789BF00BFDB
:107E500000ED00E0FFF796BFFFF756BF4FF040225E
:107E6000D36E017923F030030B43D366704770471C
:107E7000F8B504464FF04023D3F88420D106FBD454
:107E8000D3F88430C3F381139C422DD0FEF74EFF0C
:107E9000012C064602D12146FFF71CFDFFF724FF07
:107EA0004FF00072114B07465A662046FFF7DFFF7E
:107EB0004FF480634FF04025621E93402B676B6E3A
:107EC0009A0103D4D5F884309B060AD53846FFF7CB
:107ED0000FFF022C08D13046BDE8F8400021FFF723
:107EE000F9BCD5F88430EAE7F8BD00BF0060004077
:107EF00007B518B90191FEF719FF0199064B1B78D8
:107F000043B1064B984205D8012003B05DF804EB5D
:107F1000FFF7AEBF0220F8E7141B0020005A6202F0
:107F20000278034B012100201A70FFF7E1BF00BF68
:107F3000141B00204FF0004210B501244AF6CD3149
:107F4000144B5A66144A03F50B2354605A6C196497
:107F5000224078B9996811F0010F104903D08C6064
:107F6000D86AC007FCD501234B6012B10C4B0D4AF7
:107F70001A6410BDD96A0907FCD42021074B596245
:107F80000121A3F58053996005494B6A9B06FCD5F6
:107F9000EBE700BF0090004000500940006009403E
:107FA000004009403254FFFF4FF0004238B5184BF3
:107FB000184C5A66012203F50C235A604AF6CD3359
:107FC000656C236443781540934013434FF040227F
:107FD000D363A368827823F0740343EA0213C27860
:107FE000002A14BF042200221343A360027983797C
:107FF00043EA022323614279C37943EA022363619E
:108000000078FFF797FF0DB1034B2364012038BDC3
:1080100000900040004009403254FFFF70B5054613
:1080200014460E46FFF760FE296881EA040202EA60
:1080300006044C402C60BDE87040FFF759BE0000BC
:10804000F8B504460D461F4616464AB101238B403B
:108050003021184A01FB0022F7B141F210015350C0
:108060003023072D4FF00F0104FB03F317D8A800AE
:1080700006FA00F2814010481844FFF7CFFF56B9C6
:10808000012130230B4801FA05F503FB040077B109
:1080900041F21003C550F8BD42F21001DFE7A5F12F
:1080A0000800800006FA00F281400448E4E742F24A
:1080B0001003EFE700C0034004C003400CC00340BE
:1080C000F8B505460E4614465AB3826803F0030716
:1080D00022F440728260FFF707FEAA6882EA072353
:1080E00003F440735340AB60FFF702FE36B9104B08
:1080F0009D4217D12E20FFF761F90646AB680D4B64
:10810000D85D60430DD06FEAC4040444A319B3FBE7
:10811000F0F3AA68013B920702D5002B08BF0123A8
:10812000AB61F8BD044B9D42E8D12F20E3E700BFCF
:108130000000014A8FF3020000800640043021B1A4
:1081400000F5805001230360704700F50050F9E707
:1081500038B500230E4A036400F50053DA634A7809
:1081600004460D4600F108037AB903F58053022254
:108170001A602046D5E901122B7BFFF7A1FF2046AC
:108180002978BDE83840FFF7D9BF03F50053EEE783
:10819000FFFF1F00884B2DE9F043984222D0874B08
:1081A000984240F00581864B402505264FF0000897
:1081B0004FF0030C996800F50054C26B12F4C06FC5
:1081C00016D0970510D5FD225A7009221A70002288
:1081D000026493F90110012900D15A7093F901004A
:1081E000BDE8F083774BDFE75605EED5FE22EBE7DF
:1081F0001F78082F00F2D880DFE817F009001F0071
:1082000041004C006900740096009E00CD004C882F
:108210000A88E5060AD5120A02F0060242F0F002C8
:10822000012119704263C1600120D9E702F0FE020A
:10823000A10748BF42F00102F2E7170607D58021E7
:1082400000F50052D1634FF608721A8062E05206C0
:10825000EAD54A88E563D70604D502221A700B785E
:108260004363E1E7920765D507221A701B7901EB9A
:10827000C3010B89012BD7D10823C360D4E71706AC
:10828000DDD45206D0D54A88E563970752D583F8E6
:1082900000C092E74C880A88E50643BF120A02F044
:1082A000060242F0F00202F0FE02640709D51C79D2
:1082B00042F0010201EBC4010989012904BF082130
:1082C000C160042119700123C3604263ACE7170643
:1082D000B5D45706A8D54A88E56352072AD50722A0
:1082E0001A70A1E71A795F8801EBC20EBEF80890F8
:1082F000B94511D80132D2B21A714F88A3F8028061
:1083000017F0040FC3D1FF0702D4012A7FF655AF3F
:1083100008221A700223B0E7DEF80420791C598085
:10832000D25D42630622DBE7170688D457067FF545
:108330007BAFE5631E7040E794067FF575AF456A35
:10834000214C46691A793440B4F5003F04BF466AAF
:108350004FF4005601EBC20100F500540A8908BF32
:10836000E6632026E6635C88A24281BF4968661CFA
:108370005E800D5559888A42CAD90424012AC460F6
:1083800004D9013A914201D10822C2601A78092A1F
:108390003FF41DAF48E7D2057FF546AF4FF480713B
:1083A00000F50052D16310E74FF609321A800EE74C
:1083B0006FF0030014E700BF0000014A0080064090
:1083C000241B0020181B0020200002001C4B10B4AE
:1083D000984207D01B4B98422ED06FF003005DF8F7
:1083E000044B7047184B0269D20744BF2022C26079
:1083F0004A88940702D50C89002CEED0520702D58A
:108400000A8A002AE9D04FF480721A60002299602B
:108410001A71C023C3604369DB050FD4202200F525
:108420000053DA63094A5DF8044BDA63036C43F4E2
:10843000FC630364FFF7AEBE054BD4E7436AEAE78B
:108440000000014A00800640181B0020FFFF1F00AB
:10845000241B00204FF40032054B9A6641F671321E
:1084600003F51C33DA63012203F50053DA60704729
:108470000090004041F671320121064BDA6303F5AA
:108480000052D1600022DA634FF40032A3F51833B2
:108490009A667047000003404FF090435A6812B14B
:1084A0009A6A002AFAD17047CB784A7810B55B01F6
:1084B0000C7843EA82030A79234343EA02130C222D
:1084C000424302F190421363012C02BF8A78024BAF
:1084D00043F8202010BD00BFE880034008B54FF0EE
:1084E00090435A6802B960B15B680BB1FFF7D4FFE3
:1084F0004FF0904130B10120074B5860FFF7CCFF9F
:10850000C86008BDFFF7C8FF0223CB60FFF7C4FFB8
:108510000122024B5A60F4E7001000480020004896
:108520004FF090435B6870B50BB1FFF7B5FF0121C9
:10853000104B4578596083780679002BC37814BFB7
:1085400002240024002B14BF042200224379DB0004
:1085500043EA06132B43234313434FF090429360A7
:10856000054B59600378002B14BF0B460223D360E0
:1085700070BD00BF00200048001000484FF480325A
:10858000064B5A6603F5E6235B69C3F385128270D6
:1085900003F03F021B0B42700370704700900040D5
:1085A00038B50446054D1FF0CDFB0FCC0FC594E840
:1085B000030085E80300002038BD00BF301B002009
:1085C00047F6FF739A42F0B563D0022963D8334B64
:1085D000CF0003EBC10013F831108478012913D1C7
:1085E0000025C3781B1B9D4202D3E018C0B2F0BD2A
:1085F000591B4668A3EB510136F911609642D4BF6E
:108600000D4601F1FF33EEE740680028EFD0B0F9E6
:108610000010914204DBB0F902109142B8BF11463C
:1086200082883B44FF2A19BFC8222826B0F90620B9
:10863000B0F90860A2EB01020CBF0125002592FBF6
:10864000F6F25F782A447B1E934228BF13464FF40C
:108650007A7E00EBC305AE68EA88AC4611FB026285
:108660001E4622EAE272013302F5FA729F42B2FB21
:10867000FEF204D9BCF80CC008359445EBD200EBEF
:10868000C6008088904228BF1046A04238BF2046CE
:10869000ACE7FF20ABE70020A9E700BF301B0020BC
:1086A0000229F0B553D82B4800EBC10410F8311063
:1086B000636801290FD1E078A478904294BFC4EB9D
:1086C0000001C4EB0201001BCAB28242C8BF0022F3
:1086D00033F91200F0BD002B39D0A178914202D3BA
:1086E000B3F90200F6E7E178B3F900009142F1D95D
:1086F00099886478A1F1FF06013C714203F10405F9
:10870000E4B2714103F10C071FFA82FCCEB2B4420D
:1087100016D805EBC1014FF47A756A43B1F90240EE
:108720004968521A04EBD47102EB610292FBF4F235
:108730009042CFDBB3F902009042CBDC10B2C9E724
:1087400037F831E04E1CE645E3D33146DEE7024818
:10875000C0E700BF301B00200080FFFF08B50448C1
:10876000FFF71EFFBDE8084001201FF0EDBA00BF73
:1087700094F3020007B56B46054A1068516803C3BD
:108780006846FFF711FC002003B05DF804FB00BF52
:1087900018F402004FF0402213B50024536F6846CE
:1087A00043F00103536700948DF80440FFF756FB34
:1087B000204602B010BD000070B586B001AA154673
:1087C000184B03F11006144618685968083303C49F
:1087D000B3422246F7D119889B782180A370124BAF
:1087E000D3F84C21120314D4D3F85041E4B28DF8DD
:1087F0000E40FFF729F8204480F308008DF80D00A3
:108800000A48FEF7C9FA2846FEF784FF002006B0A2
:1088100070BD074B1C884FF6FF739C4208BF8C2429
:10882000E5E700BF20F402000080E00F00F04902FD
:108830000001E00F08B50120FFF70CF8002008BD8B
:108840006FF00402502110B50A480B4C12F0800F53
:10885000D3B21BBF03F00F03043BA3181B1802F194
:1088600001020CBF83F800131976402AEED10020D4
:1088700010BD00BF00ED00E000E100E000F07AB8BC
:1088800038B500F071FF0446E0B901F06DF84FF41F
:10889000167343430C4803F5742303F23F23B3FBE1
:1088A000F0F30A4A0A4913600A220D680948013A9E
:1088B00012F0FF0240F8043BF9D103EBC3022B4452
:1088C00013440B60204638BD40420F00841B00203B
:1088D000501B0020541B002070470000012208B5E7
:1088E000034B1A7001F034F8024B186008BD00BF4A
:1088F0004C1B0020801B0020F8B5144C237823B3B8
:1089000001F026F8124B134D1B68134EC01A0128B4
:1089100038BF0120114B124F18602B7856F82320D6
:1089200046F82300111A3A680E48521A0A213A6092
:108930000932B2FBF1F20133DBB20260B3FBF1F2B8
:1089400001FB12332B7000232370F8BD4C1B002059
:10895000801B00207C1B0020541B0020481B002093
:10896000501B0020841B0020014B1868704700BF7B
:10897000841B002020234FF400220A4981F82C3365
:10898000094B5A66094A03F5A040426702674FF453
:10899000805003F540530344C1F8840148605A678E
:1089A000704700BF00E100E000900040010000A01F
:1089B000054B064A1B78916DC90700D513B10028F5
:1089C000F9D17047012070479C1B002000C0004077
:1089D0002DE9F843874B1E6F9D6A9C6AF00705F0EE
:1089E000020504F001044CD501278349834A91F81C
:1089F0000090DFF828821767B9F1000F00F0ED80D2
:108A00000020087098F80010B94200F2E1800221BD
:108A10009762A2F5805291629A6DD103FCD4784995
:108A20005A6B096822F470620A435A637548764AA1
:108A300099690068126821F47F01024321F47F41A3
:108A40000A439A617148724A19691268006821F4F0
:108A50007F6121F00F0102430A431A616D499A694F
:108A6000096822F0FF020A439A610223002D40F0B8
:108A7000AB80624A93620123002C00F0A780664A13
:108A8000936216F000527FD04FF0010E5B4F6349A6
:108A90003A67594A574B82F800E00A78DFF864C118
:108AA00072440A705A6B564902F470600860986903
:108AB000554900F47F4008609969DFF8588101F456
:108AC0007F01CCF80010D3F818C05FFA8CFCC8F80E
:108AD00000C0D3F810C0DFF838810CF47C6CC8F803
:108AE00000C0D3F810C0DFF824810CF03F0CC8F8A8
:108AF00000C0C7F828E04FF0020EDFF81CC1CCF828
:108B000028E04FF0004ECCF828E0D3F858C01CF411
:108B1000803FFAD14FF0004C22F4706242F40072B0
:108B2000B0F5C84FC7F828C05A6302D8B1F5C80FCE
:108B30000CD9304A3A499369096823F47F0323F436
:108B40007F4343EA012343EA01439361294A3549BC
:108B50001369096823F47F6323F00F03880843EA4D
:108B6000910343EA80131361936923F0FF030B43DE
:108B700093610223002D37D102F500529362012345
:108B8000002C33D0244A9362002E1BDA4FF00042AF
:108B90001A4B18491A67244A12789AB101229A622C
:108BA0000222A3F580539A628A6DD203FCD44FF05F
:108BB00000429A61022205B9104B9A620123BCB1AE
:108BC000154A9362BDE8F883134A53E70B4A57E707
:108BD000FFF782FE144B1F7053E7FFF78DFE00F086
:108BE00077FB88F800904CE70B4AC7E7034ACAE7CF
:108BF000024AE6E700C000409C1B002000E0004065
:108C0000A01B0020981B0020941B0020901B00201C
:108C10008C1B0020881B002000D000409D1B0020E2
:108C20006C0B0020680B00209E1B0020FFF7D0BEBD
:108C3000BFF34F8FBFF36F8F054B5A6A22F4803218
:108C40005A62D3F8942022F00102C3F894207047AE
:108C500000ED00E070B52548254CFFF7E9FF8442A0
:108C600008BF4FF08043234A18BF20F01F03D2F8FB
:108C7000C01018BF203B21F0FF0141F0A001B3F16B
:108C8000005FC2F8C0100CD31B4D1C4E296843F086
:108C90000103C2F898100131C2F89C60C2F8A030FC
:108CA0002960844210D01448154B0268114923F002
:108CB0001F0343F00303C1F89820C1F89C30114B07
:108CC0000132C1F8A0300260BFF34F8FBFF36F8F46
:108CD0000522084BC3F894205A6A42F480325A6243
:108CE000BFF34F8FBFF36F8F70BD00BFF40C002038
:108CF000CC0E002000ED00E0A41B002003000020AB
:108D0000EB0E0020E1FFFF3F10B51446FFF790FF88
:108D10001F2C21D9194A1A4CD2F8C03021F01F015A
:108D200023F47F4343F48073C2F8C030C30618BFF6
:108D300020F01F002368114A18BF203020F01F00C8
:108D4000C2F8983040F0030041F003010133C2F84B
:108D50009C00C2F8A0102360BFF34F8FBFF36F8F4A
:108D60000522064BC3F894205A6A42F480325A62B4
:108D7000BFF34F8FBFF36F8F002010BD00ED00E0F9
:108D8000A41B0020BFF34F8F0549064BCA6802F4AD
:108D9000E0621343CB60BFF34F8F00BFFDE700BF1E
:108DA00000ED00E00400FA0508B5FFF7EBFF08BD91
:108DB000034B1B78002B14BF01200220704700BF1B
:108DC000D81B00200329F8B598BF124B05460E4664
:108DD0008CBF00245C5C032805D8DFE800F00208A3
:108DE0000B0E44F002040C4B1F684FB9F8BD44F061
:108DF0000804F8E744F02004F5E744F08004F2E7C3
:108E00007B681A68144203D0314628465B6898474D
:108E10003F68EAE733F40200D41B002038B5104D58
:108E20002B78ABB10F4C23781BB100F057FB00231C
:108E30002370002000F074FB0B4C50B100F07AFB63
:108E40000023012120782B70FFF7BCFF0123237042
:108E500038BD0122054B1A702278054B1A70F7E7CE
:108E6000D21B0020CD1B0020C41B0020D11B0020E2
:108E7000E41B002010B5FEF737FF064B04461B78B5
:108E80001BB1BDE81040FEF733BFFFF7C7FF204618
:108E9000F7E700BFCC1B0020002814BF0121FF21F1
:108EA000074A13780B44137008D0064B1B78012B2C
:108EB00004D9054B1B780BB9FFF7B0BF704700BF53
:108EC000D81B0020C41B0020D11B002070B5FEF76A
:108ED0000BFF114E054633788BB900F045FC044674
:108EE00020B12846FEF704FF204670BD00F03CFD8F
:108EF0000A4B18600A48FDF771FF0A4B1C6000F02E
:108F00002FFA00F04BFB084B002418600123284681
:108F10003370FEF7EDFEE7E7CE1B0020E01B0020DC
:108F2000D41B0020E81B0020C81B002000292DE9CD
:108F3000F34114BF0121FF21254A00F1FF30135CEA
:108F40000B4413543AD0234E3278012A36D9FFF716
:108F50002FFF0128044634D81F4FFEF7C5FE3B788B
:108F60001BB31E4D2B781BB901222A701C4A1370AB
:108F7000DFF8708098F8003033B1019000F0AEFA5D
:108F80000023019888F80030FEF7B2FE012000F0BF
:108F9000C7FAFEF7A9FE2B782BB1019000F0CAFAB0
:108FA000002301982B7000233B70FEF7A1FE307860
:108FB000A04203D02146FFF705FF347002B0BDE8A0
:108FC000F081032AF3D10228F1D100F001FBEEE792
:108FD000D81B0020C41B0020D21B0020CC1B00206B
:108FE000D11B0020CD1B002010B50446FEF77CFEEF
:108FF000002C14BF0121FF21064A13780B44DBB279
:109000001370B3FA83F3BDE81040034A5B09137091
:10901000FEF76EBEDB1B0020DA1B002068B5FEF7F2
:1090200063FE094B06461B78012B04D8FEF760FE51
:109030000025284668BD054B1D6800F0B3FA0544BD
:109040003046FEF755FEF4E7C41B0020E81B002065
:1090500007B5FEF749FE0190FFF7E0FE019803B067
:109060005DF804EBFEF744BE38B541600446FEF7F8
:109070003BFE054621460448FDF7B3FE2846BDE801
:109080003840FEF735BE00BFD41B0020054B1B68DF
:109090005843054B00F5742000F23F20B0FBF3F07D
:1090A000704700BFE01B002040420F002DE9FF4742
:1090B000FEF71AFE044600E000BFFDF7E3FD0028BE
:1090C00000F09C806D4E6E4F337823B10020FFF787
:1090D000E3FE00233370FFF76BFE0546002800F027
:1090E0009580851EEDB2012D40F29880FFF760FE5D
:1090F0000128804604D9634B1B780BB900F0ACF90A
:10910000614DDFF8A4912878DFF8A0A140450AD08E
:10911000002389F800309AF8003013B94146FFF770
:1091200051FE85F8008099F800303BB12B78022B76
:1091300004D1002389F800301FF00CFBB8F1010FB7
:109140000FD9DFF8408198F8003053B94F4B1B78A6
:1091500023B900F0BDF901224D4B1A70012388F8A4
:109160000030287800F004FA9AF8003013B1494B27
:109170001B782B7000E000BF2046FEF7B9FDFEF71C
:10918000B3FD454B04461A7852B100221A70414B88
:1091900028781B78984203D101212970FFF712FE2D
:1091A000384600F01BFBFDF778FD804600288BD188
:1091B000344F89F800003B789BB1DFF8D4908AF8EF
:1091C000000099F800301BB100F088F989F80080A0
:1091D000002000F0A5F9002846D000F0ABF90023EC
:1091E0003B70337823B10020FFF756FE0023337025
:1091F00000212878FFF7E6FD00232B7000E000BF78
:10920000204604B0BDE8F047FEF772BD3378002B6E
:109210003FF46CAFFFF740FE357067E7002003A90D
:1092200000F05EFB054600287FF460AF1B4B039AFD
:109230001B689A4205D80120FFF72EFE01233370E8
:1092400054E7174BD3F8008000F0ACF90399404481
:109250008842F0D20223091ACDE9005338462B4642
:10926000104A00F0E3FA41E7012000F081F92046BE
:10927000FEF73EFDFEF738FD0446A9E7DC1B0020A3
:10928000A81B0020D21B0020C41B0020DB1B0020D9
:10929000CD1B0020E41B0020D01B0020C81B002099
:1092A000E81B0020758E0000DA1B0020D11B002077
:1092B00010B5FEF719FD0022044B1C781A70FEF75A
:1092C00017FD00F049FC2043C0B210BDCF1B0020A9
:1092D00010B5094B1B786BB1084C237853B100F0E3
:1092E00029F90023064A237013700123054A1370DD
:1092F000054A137010BD00BFC41B0020D11B002005
:10930000D21B0020CF1B0020D01B00207047000084
:1093100073B5114E04463378834212D000238DF882
:10932000043080B102238DF8053001A8FEF742FD1C
:109330000A4D402054B1FFF7A9FE2B68181A286087
:10934000347002B070BD8DF80500EEE7FFF79EFEA9
:109350002B681844F3E700BF700B0020F41B0020BB
:1093600073B5002401A88DF80440FEF7D9FD20460E
:109370004FF40024FFF7CCFF3149324B0A6F02F063
:1093800007021A60D1F82031D1F8240101F580518B
:109390004C664FF400344C6601F598318969032A14
:1093A00000F0070001F0020141D003F003039C1E0E
:1093B00063426341022808BF43F001032248234D62
:1093C000037061B31E4A3BB9D2F8003103F00303C6
:1093D000591E4B424B410370D2F8003103F0030396
:1093E000022B26D0032B27D0012B18D1FDF7CEFC62
:1093F000A8B1174B411EDC680023024608461946F7
:10940000C4F30B04134E013404EB8404E4FB0601A3
:1094100025F0D4FAFFF73AFE2B6818442860642040
:10942000FFF734FE2B681844286002B070BD01239A
:10943000C0E7FDF7CDFCDBE7FDF7BEFCD8E700BFDA
:1094400000800040EC1B0020F21B0020F41B0020D9
:1094500000C0014040420F00FEF7FCBC074B1A78E9
:1094600052B100221A70064A136F23F0070343F02B
:1094700001031367FDF774BC704700BFF01B0020A9
:10948000008000400E4B10B51B7883B1022000F025
:1094900011FC60B100F056FA48B10A4B9A6DD20344
:1094A00006D5DB6D9B0703D50122074B9A6210BDE1
:1094B0000124064B1C70FFF711FA034B9C62F6E780
:1094C000F21B002000C0004000D00040F11B002033
:1094D0000122014B1A707047F01B002038B50C4B6D
:1094E0001B786BB10B4C23787BB90B4B0B4D9A6DF2
:1094F00012F4803F05D0DB6D9B0702D50123AB62E0
:1095000038BDFFF7EBF90123AB6200232370F7E7C7
:10951000F21B0020F11B002000C0004000D00040E2
:10952000034B1B780BB1FFF743BA0120704700BF14
:10953000F21B002008B5FEF78FFC094A0949136F9A
:10954000096823F007030B431367074B1B7813B11C
:109550000122064B9A62BDE80840FDF701BC00BF3E
:1095600000800040EC1B0020F21B002000E00040C7
:1095700002280AD003280BD001280CD1064A13690F
:1095800023F00403136130BF70470020FEF71EBCB8
:109590000020FEF73FBC704700ED00E04FF4C870BC
:1095A000FFF774BD08B5054B187818B1FFF7DCF963
:1095B00000EBD000024B1B68184408BDF21B0020D2
:1095C000F41B00200122014B1A707047F21B00208F
:1095D000704700230B70704710B500F00BFB0A4C6E
:1095E0000A4B19682368C31A01B10BB9206010BD7A
:1095F0004A699A423ABF9B1A0022D21A4A6128BF8E
:1096000000238968F0E700BFFC1B0020101C00202D
:10961000C38870B504460D463BB9FFF7FFFC854291
:10962000064602D2FFF714FD35460F4965610B6807
:10963000ABB90C60A36011E0AD1A9A681846656179
:109640002AB113465A69AA42F6D950B11A461346AE
:109650008460A36013B15969491B596170BD002032
:10966000F0E70C60F5E700BF101C002038B5134D83
:109670002B685B6993B1124A022014681C4400F005
:10968000EDFA204600F0BEFA00230E492A680B705E
:10969000D088800709D501230B7038BD022000F067
:1096A000DDFA022000F0FEFAEEE79268002AF4D01C
:1096B00050690344012BEBD9EFE700BF101C0020D9
:1096C000FC1B0020041C002070B516469DF81420D9
:1096D000C0E903360271049ABDF818300260002216
:1096E000C380826004460D4600F084FA3044A061D5
:1096F0003DB9E368656113B120462168984796B18A
:109700003546FEF7F1FA0646FFF766FF2946204682
:10971000FFF77EFF054B1B68A34201D1FFF7A6FFB1
:109720003046FEF7E5FA002070BD00BF101C002097
:1097300000220C490B687BB183420AD183687AB15D
:10974000936083681BB15A6941690A445A610020D9
:1097500070471A469B68EEE70028EFD0022070475A
:109760000B60EEE7101C002070B5FEF7C4FA144E33
:1097700005463478FCB9134B1C60134B1C60134B2B
:109780001C8000F0F5F9012000F068FA00F0BCFA46
:109790000F4B0246186020B92846FEF7B2FA232084
:1097A00070BD234640F2E7310A4825F007F90A4B1D
:1097B0001860012333702846FEF7A3FA0020EFE774
:1097C000F81B0020101C0020FC1B0020061C0020A1
:1097D0000C1C002018FCFFFF001C00202DE9F041AC
:1097E0000546F8B1FEF780FA0F4F0646FFF7F4FE84
:1097F0002846D7F80080FFF79BFF044628B1304683
:10980000FEF776FA2046BDE8F081A8453B6803D113
:1098100023B1FFF72BFFF2E7002BF0D1022000F07D
:1098200029FAECE72224EDE7101C002070B586B081
:1098300015461E460446059180B1FFF7CFFFBDF8DF
:109840002C30002202939DF828302046CDE9006399
:1098500005992B46FFF738FF06B070BD2220FBE7C5
:1098600038B50C46054698B191B100230B70FEF750
:1098700042FA0121074B1B680BB122781AB1FEF79F
:1098800040FA002038BDAB4214BF9B682170F3E75B
:109890002220F7E7101C0020F0B51F46002387B0F8
:1098A0000D46164604468DF81730A0B10DF117018C
:1098B000FFF7D6FF9DF817207AB9BDF83430294656
:1098C00002939DF830302046CDE900733346FFF710
:1098D000FBFE07B0F0BD2220FBE70320F9E7000004
:1098E0002DE9F04107468846FEF705FA00260546B1
:1098F000124B1C6824B92846FEF703FA1B2016E019
:1099000063691E44E388BB4215D100F073F90C4C27
:109910002368C01AB0420CD200F06CF922683244BD
:10992000121A2846C8F80020FEF7EBF90020BDE81F
:10993000F0810022F5E7A468DCE700BF101C0020DE
:10994000FC1B0020014B1878704700BF041C00204E
:1099500038B5FEF7D0F9054600F04CF90446284624
:10996000FEF7CFF9204638BD014B1868704700BF9D
:109970000C1C0020044B1B6858434FF47A7300F210
:10998000E730B0FBF3F070470C1C0020012300B55A
:109990008BB08DF80B30FFF7EDFF00230146CDE9CA
:1099A0000033074A0DF10B0303A8FFF775FF18B941
:1099B0009DF80B30002BFBD10BB05DF804FB00BF12
:1099C000D39500000C4B70B51B680D46834211D334
:1099D00040F2E73100248C462146084B4FF47A725E
:1099E0001E680023E0FB06C1604624F0E7FF286004
:1099F000204670BD2120FCE7001C00200C1C00202C
:109A00000F4B10B51A689AB14FF47A71531E134276
:109A1000A0FB01010ED1B2FA82F2C2F11F04531C65
:109A2000D243E04001FA03F3184321FA02F2024361
:109A3000104610BD002324F0C1FF0246F8E700BF26
:109A40000C1C0020C2072DE9F34704460BD53F4A02
:109A5000138801339BB21380FFF7BEFD3C4B1B689C
:109A60000BB1FFF703FEA3076DD5FEF744F90026FF
:109A700005463746FFF7B0FDB146DFF8D480D8F889
:109A800000400CB163698BB10022324B012F1A7078
:109A900002D1022E08BF1F70002C44D0FFF7E6FD54
:109AA000284602B0BDE8F047FEF72BB923461A79E5
:109AB0002179914288BF1C469B6813B15A69002ADC
:109AC000F5D02846FEF71DF9256985B300F092F818
:109AD000A269861AF317B54279EB030328DA2369E2
:109AE0001344A3610123226982B17BB9A91B0191AF
:109AF000FEF701F9824601992046FFF789FDA36927
:109B0000226950461344A361FEF7FBF8E368E68838
:109B1000013713B1204621689847FEF7ECF8054657
:109B2000FFF75AFDABE7022000F0A4F8B8E72E4695
:109B3000FEF7E1F882462046FFF7FAFD5046FEF7B1
:109B4000E0F80023CFE702B0BDE8F087061C002054
:109B5000101C0020081C002010B5FEF7CCF8034BA9
:109B60001C78FEF7CEF8204610BD00BF081C002070
:109B70001FB500241C4B012118689A880290D3F865
:109B800006009B7A00903E20ADF80C208DF8043042
:109B9000FDF7F2FB02A88DF808408DF80C40FEF7A7
:109BA000BFFC694601208DF80040FEF77DFC4FF0B8
:109BB000904240F2FF31936923F47F7323F0030353
:109BC00093610A4B5961936A13F00803FBD1136246
:109BD0000120FEF783FC4FF48052054BC3F880212F
:109BE0001A6004B010BD00BF37F402000020004826
:109BF00000E100E04FF090439A6A1207FCD4186A23
:109C0000704700004FF09042936A1907FCD4136A22
:109C1000116C5269520604D4CA1A032A01D8994217
:109C20000ED1C21A022A98BFD81CB0F1FF3F38BF2C
:109C300001384FF0904318649A6942F040029A61EB
:109C4000054A13783BB14FF09041CB6B43F00203D0
:109C5000CB63002313707047710B002082074FF015
:109C6000904200F00103916948BF43F040030B4369
:109C700093617047820700F001030AD50121084A69
:109C800043F0400311704FF09041CA6B22F0030281
:109C9000CA634FF090418A6922EA03038B617047DF
:109CA000710B0020830742BF4022014B5A6170476D
:109CB000001000484FF0904301285B6904D002284F
:109CC00005D1C3F38010704703F0010070470020F6
:109CD0007047000010B5FEF70EF84FF090430446B1
:109CE0005B695A06074A03F0010003F0510348BFBD
:109CF00040F002005361FFF7A5FE2046BDE810408A
:109D0000FDF7FFBF002000483E20FDF757BB08B518
:109D1000FCF75CFFFCF78CFFFCF78CFFFCF795FF72
:109D2000BDE80840FCF798BF08B5FCF796FFFCF7C4
:109D300095FFFCF794FFBDE80840FCF792BF0000D8
:109D400010B50446FDF70CF80C4BA0F57A729A4258
:109D500012D84FF47A73B0FBF3F05C43084BB3FBBB
:109D6000F0F0B4FBF0F0022806D9BDE81040032360
:109D7000B0FBF3F000F00CB810BD00BFFFC99A3B78
:109D800040420F0000000000000000000000000042
:109D9000013800D0FCE7704738B50446FDF7A4FF52
:109DA0000546204624F0DAFF04462846FDF7A0FFCA
:109DB000204638BD37B504460191FDF795FF01995E
:109DC0000546204624F08AFF04462846FDF790FF0A
:109DD000204603B030BD38B50546FDF785FF044683
:109DE000284624F0C3FF2046BDE83840FDF780BF79
:109DF0000A4619B1024B00211B681847704700BF83
:109E0000740B002000F4E040B0F5805F04D0A0F5B2
:109E1000005358425841704701207047B0F5105F19
:109E20000DD009D8B0F5885F10D0B0F5905F0DD097
:109E300041F20103984209D06FF08500704721F08C
:109E40004003802B02D0B1F5807F06D111F0070FBF
:109E500014BF6FF08600002070476FF086007047D7
:109E60000E4B0340B3F1607F06D1B1F5885F14BF9C
:109E70006FF0860000207047B3F1707F0BD101F4C2
:109E8000E043B3F5005F06D111F4E06F0CBF6FF053
:109E90008600002070476FF0860070470000C07F8A
:109EA0008A42F8B507460D4600F01781964B974851
:109EB00002EA030181420BD0954922F0FF048C4253
:109EC00006D0944C22F47F7121F00301A1421DD1F0
:109ED0002B4083420BD08E4B25F0FF01994206D0D8
:109EE0008C4925F47F7323F003038B420ED115F0C8
:109EF000FF030BD0884943F000738B4206D16A40C0
:109F000032F0FF030CBF01200020F8BD05F0FE4336
:109F1000B3F1A06F17D102F0FE43B3F1A06F40F090
:109F2000DE8082EA050333F47E1340F0D88015F416
:109F30000040EAD0C5F30540C2F3054290428CBF11
:109F400000200120E1E7B3F1407F40F0B38002F050
:109F5000FE43B3F1407F40F0C28082EA050333F450
:109F60007E1640F0BC8039462846FFF779FF00286E
:109F700040F0B580694C12F47C1C04EA020438D02D
:109F8000B4F1607FC2F3054C7AD16549D3B243F096
:109F900000738B4278D003F17E410439012975D9D1
:109FA00060498B4276D001318B4275D001318B42B2
:109FB00074D001318B426BD001318B426AD00131B8
:109FC0008B4269D003318B4264D001318B4263D024
:109FD00001318B4262D001318B4208BF402615F41B
:109FE0007C1FC5F305435BD1664514BF00200120EB
:109FF0008BE7B4F1607F2BD14949D3B243F00073B2
:10A000008B426ED003F17E41043901296CD9454958
:10A010008B426FD001318B426FD001318B426FD0B8
:10A0200001318B4263D001318B4263D001318B42CD
:10A0300063D003318B425DD001318B425DD0013161
:10A040008B425DD001318B4208BF4FF0400C9CE742
:10A05000B4F1707FC3D107F4E043B3F5005F05D1DD
:10A060004FF0010CC7F302230CFA03FC07F4E043A2
:10A07000B3F5005FB3D10126C7F302239E40AEE7DC
:10A08000B4F1707FABD1F1E71026A8E71426A6E75C
:10A090004026A4E71C26A2E72026A0E730269EE75C
:10A0A00012F47C1F01D1B34217D02A047FF52DAFE3
:10A0B000634544E7B3F1106F11D125F01F6323F41A
:10A0C000702363B902F0FE43B3F1106F07D1164855
:10A0D000104040F01060A84287E7012015E70020FB
:10A0E00013E74FF0100C50E74FF0140C4DE74FF012
:10A0F000400C4AE74FF01C0C47E74FF0200C44E7B8
:10A100004FF0300C41E700BF00FEFFFF00020006E9
:10A110000009000600040006FF0000020000C07FE6
:10A1200003000002080000020000FFF643680A4630
:10A130001B0A10B403D05DF8044B00F0C5BE438881
:10A14000B3B1018801F4E040B0F5805F02D0B0F512
:10A15000005F02D10733DB1009E047F201008142C2
:10A160000AD15B080133DB1003EBC3033B331360FD
:10A1700000205DF8044B704744F20100814202D197
:10A18000DB081033F3E747F20200814204D1DB0819
:10A1900003EB43035A33EAE744F20200814204D15D
:10A1A000DB0803EB43034A33E1E721F0FF01B1F59C
:10A1B000E24FCFD0B1F5824F04D10733DB105B0003
:10A1C0000133D4E76FF08500D3E77FB500F0FE469A
:10A1D000B6F1106F0D4603D06FF0850004B070BD6E
:10A1E00020F01F6424F47024002CF5D10A9C029402
:10A1F000099C0194089C009400F08AFF10F1860FDE
:10A20000ECD16B681B0AE9D1E6E700002DE9F843C1
:10A21000884617461C4601F051F8054600283FD1F4
:10A22000D8F80060B6F8009009F4E043B3F5804F29
:10A23000F36808BF27F0010737EA030328D17CB38E
:10A24000224A24F4FF7323F0010393420BD0204BE6
:10A2500024F0FF029A4206D01E4A24F47F7323F0B2
:10A26000030393421FD114F0FF0304D01A4A43F0B2
:10A27000007393421ED0224648463169FFF710FE14
:10A28000074668B9224648467169FFF709FED0B90A
:10A290006FF0840500233046C8F8003001F05CF808
:10A2A0002846BDE8F88304F0FE43B3F1407F04D1B3
:10A2B0002304E0D56FF08605ECE7B3F1A06FF7D08B
:10A2C000054B9C42D6E73D46EAE700BF0002000688
:10A2D0000009000600040006FF00000238B50379FB
:10A2E00004460D4633B9A36820462B6001F034F8CC
:10A2F00038B938BDD0E9081201F0F6F80028F2D0DC
:10A30000F7E700232B60F4E700F0FE43B3F1407F52
:10A3100070B505460E4640F09980FFF7A1FD002874
:10A3200040F0968015F47C1F05D0C5F30543032B40
:10A3300013700DD86BE04C4B2B40B3F1607F69D1AB
:10A340004A49EBB243F000738B4231D110231370B2
:10A35000454C2C40B4F1607F6AD14449EAB242F0E6
:10A3600000728A4275D002F17E410439012972D906
:10A370003F498A4271D001318A4270D001318A420C
:10A380006FD001318A4211D001318A4265D001314A
:10A390008A4264D003318A425FD001318A425ED062
:10A3A00001318A425DD001318A424FD140214BE0D8
:10A3B00003F17E410439012901D81423C7E72C4950
:10A3C0008B4201D11C23C2E72A498B4201D12023B1
:10A3D000BDE729498B4201D13023B8E727498B4299
:10A3E00001D14023B3E726498B42EBD001318B42A8
:10A3F000EDD003318B42E5D001318B42E7D0013102
:10A400008B42E9D001318B42EBD0002313706FF007
:10A4100085001DE0B3F1707FF7D101F4E043B3F59F
:10A42000005FF2D10123C1F302218B40DBB27EE752
:10A43000B4F1707F0AD106F4E042B2F5005F05D1B5
:10A440000121C6F3022291408B4201D96FF08600B0
:10A4500070BD1021F8E71421F6E71C21F4E7202154
:10A46000F2E73021F0E700BF0000C07F03000002E8
:10A4700008000002090000020A0000020B000002AE
:10A480000C0000022DE9F047174624220D4600215A
:10A49000044692B00DEB02009A46DDE91A868DF86B
:10A4A0001F10DDF8709024F0A0FC1D9B2046002BAF
:10A4B00018BF4FF480522B4608BF4FF4005208A932
:10A4C000FFF7A4FE044620BBDDF820C009ACBCE8C1
:10A4D0000F000FC49CE8070084E807002846BDF879
:10A4E00024100DF11F02FFF70FFF044688B99DF8F5
:10A4F0001F30B34224D8CDE90339CDE901A808992A
:10A5000000972B46D1E9081209A800F0AEFD0446D9
:10A5100020B10023C9F800608DF81F309DF81F009E
:10A52000B04204D2321A2121404424F05EFC089843
:10A5300000F012FF002C18BF204612B0BDE8F087D3
:10A540006FF08904E5E700232DE9F341D0E90168C4
:10A5500004460F4630461146136000F007FF0546DB
:10A5600088B9304600F004FF054660B9F6B276B906
:10A57000B8F1000F05D1E36823F47F4323F0030310
:10A5800063B16FF08605284602B0BDE8F081014650
:10A59000A06800F0E6FD0028EDD1F2E74FF6F87371
:10A5A00062889A421CD8238B23F00103002BE8D148
:10A5B000394601A800F040FE05460028E3D10FCC43
:10A5C0003F683E460FC694E807003B7986E80700DF
:10A5D0000BB9019BBB603B8B23F001033B83D2E7AC
:10A5E0006FF08505CFE770B5046A05460E463CB9A5
:10A5F0000120FFF7DFFB286228B120466E6270BDA4
:10A600006FF08A00FBE76FF08C00F8E773B50E4639
:10A61000114605460192FFF7E6FF044620B9314690
:10A62000019A286A24F0BAFB204602B070BD2DE9D9
:10A63000F041089E88461F46048822B96FF08504C1
:10A640002046BDE8F0812046FFF7DCFB0028F5D06E
:10A6500033680BB9D3003360B2F1005FEED24FF62E
:10A66000F87331689942E9D82046FFF7D7FB0446D2
:10A670000028E5D1CD1D0699EB08B1EBD50F0BD322
:10A6800093420CD14146384624F088FB3368079A40
:10A690000733DB081360D3E76FF08904D0E76FF06E
:10A6A0008604CDE710B50446006A10B1616AFFF771
:10A6B0009FFB206AFFF78FFB0020C4E9080010BD54
:10A6C00038B50446FFF7EEFFE3692822012B0CBFE3
:10A6D00005466FF096050021204624F086FB2846AB
:10A6E00038BD13B5044660B101A900F0E7FD04468A
:10A6F00038B90198C369012B06D900F02DFE6FF01F
:10A700008304204602B010BD0379FF2B0BD01BB190
:10A71000806800F03FFE04460198FFF7D1FF002853
:10A7200018BF0446EDE76FF08404F5E773B50446FF
:10A7300008460E4600F09AFB002320461A4601A95F
:10A74000FFF764FD70B93446019D0FCD0FC495E845
:10A75000070084E80700338B019803F0010333837B
:10A7600000F0FAFD02B070BD70B5144602881D46B7
:10A770001046049EFFF746FB50B944F2010322F451
:10A780004050984204D002F44F42B2F5824F0ED1AD
:10A79000B4420FD82246284624F000FB0021321B89
:10A7A000281924F022FB0020059B1C6070BD6FF06F
:10A7B0008500FBE76FF08900F8E72DE9F041884656
:10A7C0001F4616468CB022B3002301223B6002A92B
:10A7D000FFF71CFDD0B9DDF808C003AC6546CDE934
:10A7E0000A000FCD0FC495E8070084E80700CDE903
:10A7F00000674346DCE9081203A800F0FCFB0446AE
:10A80000029800F0A9FD002C18BF20460CB0BDE84E
:10A81000F0816FF08900F9E770B51D4644F201033D
:10A8200014460288049E22F44050984204D002F458
:10A830004F43B3F5824F13D102F4E042B2F5804F9B
:10A840000ED1B4420FD82246284624F0A7FA0021A0
:10A85000321B281924F0C9FA0020059B1C6070BD2A
:10A860006FF08500FBE76FF08900F8E72DE9F04312
:10A870008946984617468DB052B3002302A91A465E
:10A88000C8F80030FFF7C2FCE0B9029E33885B04D1
:10A890001BD5354603ACCDE90A000FCD0FC495E8B2
:10A8A000070084E80700CDE900784B46D6E9081296
:10A8B00003A800F0ABFB0446029800F04DFD002C0D
:10A8C00018BF20460DB0BDE8F0836FF08604F3E7B3
:10A8D0006FF08900F6E72DE9F0411E46002388B0AD
:10A8E000054688461746CDE9043307923360002AAF
:10A8F0004CD005AA04A9FFF726FE0446D0B9284685
:10A9000007A9FFF713FC0446A0B90498036AB3B182
:10A91000049B41465A882846069206AA029203F1F1
:10A92000240201925A6A00921B6A3A4600F03CFBEC
:10A93000044658B1049800B3FFF7C2FE1DE0079922
:10A94000FFF751FE04460028E2D0F3E70498069B87
:10A950004288B2B943802B8813B102889A4212D13F
:10A960002B6A83B96B8813B142889A420BD1314666
:10A97000FFF7B4FC04460028DCD1204608B0BDE84F
:10A98000F0819A42E7D06FF08604D3E76FF0860437
:10A99000F3E7036810B5044653B100F0B0FB0023A1
:10A9A0002360A38823F4FF7323F00103A38010BD69
:10A9B0001846FCE72DE9F04105460C4600218CB015
:10A9C000174603A824229846029124F00EFA2B6819
:10A9D000002B3DD1B8F1000F20463B4614BF4FF489
:10A9E00080524FF4005202A9FFF710FC044600BB4E
:10A9F000029E03AC0FCE0FC496E8070084E8070060
:10AA00003846BDF80C102A1DFFF77EFC044680B9BD
:10AA10006B79284668F300036B71029B03A9D3E9A5
:10AA200008230097B8F1000F0FD000F02BFB04466D
:10AA300010B12846FFF7ADFF029800F08DFC002C06
:10AA400018BF20460CB0BDE8F08100F02EFBEEE709
:10AA50006FF08804EDE70123FFF7ACBF38B503685A
:10AA6000054614464BB132B100F032FB044610B13A
:10AA70002846FFF78EFF204638BD6FF08804FAE7BE
:10AA80002DE9F0411646026805460F469846F2B198
:10AA90004279D2071BD50279CAB1B2421AD800F066
:10AAA00020FB044618B10023C8F800602B712879F8
:10AAB000B04204D2321A2121384424F096F92846B3
:10AAC000FFF767FF002C18BF2046BDE8F0816FF04C
:10AAD0008804E8E76FF08904E5E71FB501240394D3
:10AAE000089C0294079C0194069C0094FFF7CAFC02
:10AAF00004B010BD37B50C4D0C462B7ADB070FD5D3
:10AB000000230A460193014601AB284602F0F2FDFC
:10AB100020B9019BA34218BF6FF0930003B030BD72
:10AB20006FF08800FAE700BF141C00202DE9F04701
:10AB30001F46002390B0DDF868A00D46DDE91889B6
:10AB4000CAF8003001F0FE43B3F1806F16465AD1C7
:10AB50000B464FF4807206A9FFF758FB00283FD13F
:10AB6000DDF818E007ACF446CDE90E00BCE80F00B4
:10AB70000FC49CE80700BEF8003084E8070003F427
:10AB8000E042B2F5005F14D10121C3F302229140EB
:10AB90007AB11E4825F48072824228D000F50070F8
:10ABA000854224D01A48854221D0A0F53F408242F8
:10ABB0001DD042F20402934215D0CDE9039ACDE9AB
:10ABC0000178069900962B46D1E9081207A800F0F3
:10ABD0003FFA0446069800F0BFFB002C18BF204641
:10ABE00010B0BDE8F0870B4B9D42E6D10C218945A2
:10ABF00006D34046FFF77EFF04460028DDD0E9E794
:10AC00006FF08904E6E76FF08600E9E70010C00402
:10AC100000FF4004000180042DE9F04705469A46F4
:10AC2000002386B0059305F0FE43B3F1106F08468C
:10AC3000DDE90E961746DDF8408022D12B464FF411
:10AC4000804205A9FFF7E2FA044658B953463A464E
:10AC50002846CDE901680599CDF80090FFF7B5FACF
:10AC6000044628B131464846FFF744FFC8F8006063
:10AC7000059800F071FB002C18BF204606B0BDE817
:10AC8000F0876FF08604EDE7034610B50C461146D9
:10AC9000DA6900880AB91B6A3BB9FFF7B3F838B123
:10ACA0002046BDE81040FFF725BF6FF0860010BDBD
:10ACB0006FF08500FBE72DE9FF410023CDE901336B
:10ACC0000B60438806460D46002B00F0878002AAE1
:10ACD00001A9FFF738FC044600BB019B1B6A73B156
:10ACE0000199304601F12403D1E9081200F03EF940
:10ACF0000446002875D00198FFF7D4FC0EE0726876
:10AD0000170A60D1B6F8008071884046FFF77AF8DC
:10AD100060B14046FFF782F8044660B1019808B17F
:10AD2000FFF7CEFC204604B0BDE8F08128F0FF0319
:10AD3000B3F5E24F4FD108F4E043B3F5805F02D0A2
:10AD4000B3F5005F02D1CA1DD7100AE047F2010334
:10AD500098450FD14A080132D21002EBC20202F12B
:10AD60003B07039703990198FFF73DFC0446002831
:10AD7000B6D0D3E744F20103984503D1CA0802F1E3
:10AD80001007EEE747F20203984505D1CA0802EB27
:10AD9000420202F15A07E4E744F20203984505D162
:10ADA000CA0802EB420202F14A07DAE728F0FF0084
:10ADB000B0F5E24FC7D0B0F5824F01BFCA1DD21027
:10ADC0005200571CCDE7304603A900F07DF8044639
:10ADD0000028C7D0A2E76FF085049FE76FF08604D4
:10ADE000A0E729460198FFF779FA0446002899D090
:10ADF00094E7000008B500F005FA0748037A13F05D
:10AE0000060F03D00822002123F0EFFFBDE8084021
:10AE10000C210148FEF7ECBF141C002038B5124D80
:10AE2000297A11F0010102D00024204638BD082201
:10AE3000284623F0DAFF02222B7A62F342032B72B8
:10AE400000F0D4F9044660B900F03CF810F1860F28
:10AE5000044600D028B92B7A43F001032B72002C52
:10AE6000E2D0FFF7C7FFE0E7141C002010B504464E
:10AE7000C069FEF7B0FF2046BDE810402422002143
:10AE800023F0B3BF2DE9F04105460F4690461C461E
:10AE90009BB119460120FEF78DFF064678B1224688
:10AEA000414623F07BFFE86908B1FEF794FF0020DC
:10AEB000C5E907642F80BDE8F0811E46F3E76FF017
:10AEC0008C00F8E702F014BC028843884068000A4E
:10AED00047D102F4E040B0F5805F02D0B0F5005FEA
:10AEE00005D10733DB0863B96FF08500704747F27F
:10AEF000010082420FD15B080133DB0803EBC3037F
:10AF00003B3322F0FF02B2F5824F01D1012BEBD08F
:10AF100000200B60704744F20100824202D1DB083E
:10AF20001033EEE747F20200824204D1DB0803EB64
:10AF300043035A33E5E744F20200824204D1DB08BE
:10AF400003EB43034A33DCE722F0FF00B0F5E24FA6
:10AF5000C7D0B0F5824FC7D10733DB085B000133A0
:10AF6000CFE700236FF086000B6070472DE9F041BA
:10AF7000476804463F0A0D461646984611D1078891
:10AF80007F0407D44346324629462046BDE8F041B7
:10AF9000FFF77ABE02F082F810F1860FF2D0BDE81A
:10AFA000F0816FF08600FAE72DE9F04F456885B033
:10AFB0002D0A0446DDE90E7A894616469846DDF8E4
:10AFC00040B013D1CDE901AB009702F051F910F177
:10AFD000860F0DD14346324649462046CDE90FAB98
:10AFE0000E9705B0BDE8F04FFFF721BB6FF086006C
:10AFF00005B0BDE8F08F70B44668360A02D170BC67
:10B00000FFF7B2BB6FF0860070BC70472DE9F347C5
:10B0100045680446DDE90A7A2D0A894616469846AF
:10B0200011D1CDE9007A02F0A9F810F1860F0CD108
:10B030004346324649462046CDE90A7A02B0BDE889
:10B04000F047FFF7E9BB6FF0860002B0BDE8F0877C
:10B05000F0B5D0F804E05FEA1E2E03D1BDE8F04061
:10B0600001F0F4BE6FF08600F0BDF0B5D0F804E05A
:10B070005FEA1E2E03D1BDE8F04002F0E5B96FF0A3
:10B080008600F0BD13B504464868000A0AD104984A
:10B09000009004F1080002F03FFA08B9062323608B
:10B0A00002B010BD6FF08600FAE713B50446486899
:10B0B000000A0AD10498009004F1080002F05EFA38
:10B0C00008B90623236002B010BD6FF08600FAE7CE
:10B0D0000368062B02D1083002F052BA6FF08600E6
:10B0E000704710B40468062C04D15DF8044B083096
:10B0F00002F096BA6FF086005DF8044B7047036863
:10B10000062B02D1083002F0DFBA6FF086007047DC
:10B110002DE9F04198460D4600230E4690B007AC4D
:10B12000CDE90E33844617460FCD0FC495E80700CE
:10B13000736884E807001B0A10D1189B60460493CB
:10B14000179B00970393169B07A9CDE90183D6E9C6
:10B15000082301F0FDFE10B0BDE8F0816FF086001D
:10B16000F9E76FF04043421E9A4208D329B100F13B
:10B17000404098428CBF00210121084670470121C0
:10B18000FBE7000000F100420332022A38B5044612
:10B190000D460ED82821144B01FB02339A688242D7
:10B1A0001CD1DA69511C1CD000200132DA612B60FD
:10B1B00038BD0121FFF7D5FF68B10B4B9A68944267
:10B1C000EFD01A6B944204D09A6D944206D150335A
:10B1D000E7E72833E5E76FF08700E9E76FF08B00DA
:10B1E000E6E76FF09600E3E7201C0020044A002009
:10B1F00092F8783043F0010382F87830704700BF4E
:10B20000201C002038B501250A4C2046E561FFF7D7
:10B2100057FA04F128006564FFF752FA04F1500070
:10B22000E566FFF74DFA94F878306FF3000384F881
:10B23000783038BD201C0020F8B51E4C064694F826
:10B2400078300F46D8072ED5002523462946188882
:10B250001A46A8B12DB91A791AB1DA69002A08BFBD
:10B260001D460131032903F12803F0D115B96FF010
:10B270008C001AE001232846EB61FFF721FA2A46E9
:10B28000D369591C02D16FF096000EE00020013303
:10B29000D361141B084BE4105C4304F10044033CED
:10B2A00034603A60F8BD6FF0880000233B60336083
:10B2B000F8E700BF201C0020CDCCCCCC0023F0B59B
:10B2C0000B60244B074693F878300D46DC0785B0B9
:10B2D0003CD5FFF757FF10F18C0F044625D12946C6
:10B2E00001A8FFF7A9FF0446F8B901232E68CDE9AC
:10B2F0000200B7603046736003AA02A900F04DF95E
:10B30000044628B9DDE902123046FFF77FF904460A
:10B31000DDE9020100F037F954B12868FFF7D0F9F0
:10B3200014F18C0F08BF6FF08704204605B0F0BD04
:10B330002B68DA68D00444BF42F48062DA60DA68CD
:10B340009104F2D542F40062DA60EEE76FF088040F
:10B35000EBE700BF201C002038B1C3691BB1013BE3
:10B36000C361002070476FF096007047002070475F
:10B37000C0B2FF280CBF6FF086000020704707B5F1
:10B3800000216A4601F0E6FC8C3018BF012003B0B2
:10B390005DF804FB13B500216A46044601F0DAFCAF
:10B3A0008C3002D1002002B010BD0021204601F0F7
:10B3B000FDFC014628B96A46204601F0CBFC8C30E2
:10B3C000F0D06FF09800EEE7F8B515460E46074648
:10B3D0000822184621491C4623F0E0FC0023237272
:10B3E0006372A372E3726B6839461A0A237362733D
:10B3F0001A0C1B0EA273E3732B8804F12400237430
:10B400001B0A63746B88A3741B0AE374EB681A0A43
:10B41000237562751A0C1B0EA275E3752B691A0A47
:10B42000237662761A0C1B0EA276E3766B6984F89B
:10B4300020601A0A237762771A0C1B0EE377330A0F
:10B4400084F82130330CA27784F82230330E324650
:10B4500084F82330BDE8F84023F0A0BC42F4020099
:10B460002DE9F843232904460F4691469846089E45
:10B4700004D86FF098052846BDE8F88308221949DA
:10B4800023F07CFC05460028F3D1A368002BF0D103
:10B49000216A243FB942C8F80010EAD8B1F5005F2C
:10B4A000E7D271B9C9F80000E3687360238A33807A
:10B4B000638A73806369F360A3693361E3697361CD
:10B4C000D9E70120FEF776FCC9F8000030B1D8F8C2
:10B4D000002004F1240123F061FCE5E76FF08C0506
:10B4E000C9E700BF42F402002DE9FF4106461446B9
:10B4F000884600293ED0002A3CD0B2F5005F3CD2FD
:10B5000002F1240739460120FEF754FC0546B8B382
:10B510000346324621464046FFF756FFB6680024F0
:10B520003046FFF72CFF01281ED021462B463A4615
:10B530003046009401F02EFB0146C0B9304602AA05
:10B5400001F008FC044620B9029B9F4205D06FF031
:10B5500098043046002101F029FC2846FEF73BFC08
:10B56000204604B0BDE8F0816FF08A04F5E76FF083
:10B570009804F2E76FF08604F2E76FF08D04EFE7CE
:10B580006FF08C04ECE710B5044608B1FEF730FC10
:10B590002046BDE81040FEF71EBC2DE9F047D0F86C
:10B5A00008A086B081460F4616465046002104AAE0
:10B5B00001F0D0FB044610BBDDF8108001204146AD
:10B5C000FEF7F8FB0546002835D02146504604AA70
:10B5D000039401F0BFFB044670B903AB0246214659
:10B5E000CDE900535046434601F058FB039B044607
:10B5F000984508D06FF098042846FEF7ECFB2046EB
:10B6000006B0BDE8F0870028F6D133463A464146F9
:10B610002846CDF80090FFF723FF04460028EBD121
:10B620003B682BB13368002B08BF6FF09104E3E750
:10B630006FF09104E0E76FF08C04E0E700207047C2
:10B6400013B51AB10024009400F00EFA02B010BD38
:10B650001B0603F0706300F00F000902034301F4BE
:10B660007061120402F470220B431343014A136009
:10B67000704700BF0020024C30B501B10139084CC1
:10B68000E568ED03FCD443EA0121120741EA000317
:10B6900002F08052134343F00043636030BD00BFAB
:10B6A0000020024CF0B58DB005AC84E807001C46C4
:10B6B000A1420D4628BF2546129B0DB304B3114687
:10B6C0002846002603F51813CDE90A468DE8030045
:10B6D00003F241135F02C5EB4323099302950CAAC1
:10B6E000059B12E90700069500F0E6FCA54207D28B
:10B6F0003146621B381B0DB0BDE8F04000F0DABCEB
:10B700000DB0F0BD30B591B001AC84E807000A4639
:10B710001C46039B0146D8004ABF0332620022F058
:10B72000030204A8FFF78CFF04A800F0B3F91499F2
:10B73000224601F5181101F241114D0208A8C4EB8F
:10B7400041210023FFF77CFF05F50071002322460D
:10B75000091B0CA8FFF774FF0CA800F09BF908A9BF
:10B7600004A800F071F911B030BDF0B591B001AC92
:10B7700084E807001C460D461699174601F5181176
:10B7800001F2411122464E0208A8C4EB41210023D8
:10B79000FFF756FF06F5007122460023091B0CA88F
:10B7A000FFF74EFF0CA800F075F9FB0048BFEA1C3C
:10B7B0003B46019954BF620022F0030204A8FFF740
:10B7C0003FFF04A800F066F904A908A800F03CF9BE
:10B7D00011B0F0BD10B58CB005AC84E807000E9A2E
:10B7E000DDE9060102F5181202F5A0725202CDE958
:10B7F000092300228DE803000B9202930CAA059BFB
:10B8000012E9070000F058FC0CB010BD0122054BF6
:10B810009A60DA68D203FCD4D86820F00F000004E4
:10B82000000C70470020024C2DE9F04B4FF000084F
:10B8300099460746164645468AB003AC84E8070099
:10B8400002F0805B07AC049A424502D80AB0BDE81A
:10B85000F08B139B13B9AA1E012A0AD9129BCDE9BA
:10B860000779099600955BB194E807004B46FFF70E
:10B8700019FFBBF1000F00D14F440135C844E2E786
:10B880004B4694E80700FFF7A5FFF2E7014B186865
:10B89000704700BF0040024C014B5868704700BF22
:10B8A0000010024C014B186B704700BF0010024C97
:10B8B000014B1868704700BF0010024C014B9860A4
:10B8C000704700BF0010024C014B1864704700BF66
:10B8D0000010024C014B5864704700BF0010024C2E
:10B8E000014B5863704700BF0010024C0022014B0F
:10B8F0001A6070470010024C024A136843F00103BB
:10B90000136070470010024C43F20402014B1A60AE
:10B91000704700BF0010024C024A136843F0300326
:10B92000136070470010024C044B1A6842F4807296
:10B930001A601A6822F480721A6070470010024C74
:10B94000024A136843F48063136070470010024C8E
:10B95000034A136823F4702343EA004010607047E1
:10B960000010024C0268044B1A6142685A618268F6
:10B970009A61C268DA6170470010024C024B1A6B80
:10B98000D207FCD4186270470010024C82B01FB579
:10B9900007930A9B04AC8B4228BF0B4604E90700BF
:10B9A0001048D100079948BF03330160099948BF87
:10B9B00023F0030323F0704301F0E041194341F009
:10B9C00000518160002102F0E042019C134343F0EA
:10B9D0000053C16004618361416304B0BDE810405D
:10B9E00002B070470000024C3F22034B1A63102242
:10B9F000DA6103229A6370470000024C024AD36B5B
:10BA00009B07FCD4704700BF0000024C034B986AB0
:10BA100010F0240018BF0420704700BF0000024C43
:10BA200008B5FFF7F3FF064BDB6B23F47F4323F0EE
:10BA3000EF0303431EBF0122024BC3F8FC2F08BDD6
:10BA40000000024C00F0FF3F032208B5054B1860D0
:10BA500019615A63FFF7C8FFFFF7D0FFBDE8084040
:10BA6000FFF7DEBF0000024C10B522F0704200F17B
:10BA70001004C0E90014826041B1826803F0704391
:10BA800013438360029BC360204610BD836843F06C
:10BA90008043F6E701234360C36843F02003C3609B
:10BAA000836843F000538360704700004268034698
:10BAB000182A10B50AD0202A1DD0102A2BD1174AD7
:10BAC000D2F80424D4010AD4012013E0134AD2F896
:10BAD00004249001F8D50A6842F008020A60104870
